{
  "_format": "hh-sol-artifact-1",
  "contractName": "Aim",
  "sourceName": "contracts/Aim.sol",
  "abi": [
    {
      "inputs": [
        {
          "internalType": "address",
          "name": "creator",
          "type": "address"
        },
        {
          "internalType": "uint128",
          "name": "initialAmount",
          "type": "uint128"
        }
      ],
      "stateMutability": "payable",
      "type": "constructor"
    },
    {
      "anonymous": false,
      "inputs": [
        {
          "indexed": true,
          "internalType": "address",
          "name": "owner",
          "type": "address"
        },
        {
          "indexed": true,
          "internalType": "address",
          "name": "spender",
          "type": "address"
        },
        {
          "indexed": false,
          "internalType": "uint256",
          "name": "value",
          "type": "uint256"
        }
      ],
      "name": "Approval",
      "type": "event"
    },
    {
      "anonymous": false,
      "inputs": [
        {
          "indexed": false,
          "internalType": "address",
          "name": "from",
          "type": "address"
        },
        {
          "indexed": false,
          "internalType": "address",
          "name": "to",
          "type": "address"
        }
      ],
      "name": "FlowCreation",
      "type": "event"
    },
    {
      "anonymous": false,
      "inputs": [
        {
          "indexed": false,
          "internalType": "address",
          "name": "from",
          "type": "address"
        },
        {
          "indexed": false,
          "internalType": "address",
          "name": "to",
          "type": "address"
        }
      ],
      "name": "FlowRemoval",
      "type": "event"
    },
    {
      "anonymous": false,
      "inputs": [
        {
          "indexed": true,
          "internalType": "address",
          "name": "previousOwner",
          "type": "address"
        },
        {
          "indexed": true,
          "internalType": "address",
          "name": "newOwner",
          "type": "address"
        }
      ],
      "name": "OwnershipTransferred",
      "type": "event"
    },
    {
      "anonymous": false,
      "inputs": [
        {
          "indexed": true,
          "internalType": "address",
          "name": "from",
          "type": "address"
        },
        {
          "indexed": true,
          "internalType": "address",
          "name": "to",
          "type": "address"
        },
        {
          "indexed": false,
          "internalType": "uint256",
          "name": "value",
          "type": "uint256"
        }
      ],
      "name": "Transfer",
      "type": "event"
    },
    {
      "inputs": [
        {
          "internalType": "address",
          "name": "owner",
          "type": "address"
        },
        {
          "internalType": "address",
          "name": "spender",
          "type": "address"
        }
      ],
      "name": "allowance",
      "outputs": [
        {
          "internalType": "uint256",
          "name": "",
          "type": "uint256"
        }
      ],
      "stateMutability": "view",
      "type": "function"
    },
    {
      "inputs": [
        {
          "internalType": "address",
          "name": "spender",
          "type": "address"
        },
        {
          "internalType": "uint256",
          "name": "amount",
          "type": "uint256"
        }
      ],
      "name": "approve",
      "outputs": [
        {
          "internalType": "bool",
          "name": "",
          "type": "bool"
        }
      ],
      "stateMutability": "nonpayable",
      "type": "function"
    },
    {
      "inputs": [
        {
          "internalType": "address",
          "name": "account",
          "type": "address"
        }
      ],
      "name": "balanceOf",
      "outputs": [
        {
          "internalType": "uint256",
          "name": "",
          "type": "uint256"
        }
      ],
      "stateMutability": "view",
      "type": "function"
    },
    {
      "inputs": [
        {
          "internalType": "uint128",
          "name": "amount",
          "type": "uint128"
        }
      ],
      "name": "buy",
      "outputs": [],
      "stateMutability": "payable",
      "type": "function"
    },
    {
      "inputs": [
        {
          "internalType": "address",
          "name": "addr",
          "type": "address"
        }
      ],
      "name": "confirmContribution",
      "outputs": [],
      "stateMutability": "nonpayable",
      "type": "function"
    },
    {
      "inputs": [
        {
          "internalType": "address",
          "name": "",
          "type": "address"
        }
      ],
      "name": "contributionConfirmations",
      "outputs": [
        {
          "internalType": "int8",
          "name": "",
          "type": "int8"
        }
      ],
      "stateMutability": "view",
      "type": "function"
    },
    {
      "inputs": [
        {
          "internalType": "address",
          "name": "",
          "type": "address"
        }
      ],
      "name": "contributions",
      "outputs": [
        {
          "internalType": "int8",
          "name": "exists",
          "type": "int8"
        },
        {
          "components": [
            {
              "internalType": "string",
              "name": "explanation",
              "type": "string"
            },
            {
              "internalType": "uint16",
              "name": "weight",
              "type": "uint16"
            },
            {
              "internalType": "bytes8",
              "name": "d2d",
              "type": "bytes8"
            }
          ],
          "internalType": "struct FlowData",
          "name": "data",
          "type": "tuple"
        }
      ],
      "stateMutability": "view",
      "type": "function"
    },
    {
      "inputs": [
        {
          "internalType": "address",
          "name": "_from",
          "type": "address"
        },
        {
          "components": [
            {
              "internalType": "string",
              "name": "explanation",
              "type": "string"
            },
            {
              "internalType": "uint16",
              "name": "weight",
              "type": "uint16"
            },
            {
              "internalType": "bytes8",
              "name": "d2d",
              "type": "bytes8"
            }
          ],
          "internalType": "struct FlowData",
          "name": "_data",
          "type": "tuple"
        }
      ],
      "name": "createInflow",
      "outputs": [],
      "stateMutability": "nonpayable",
      "type": "function"
    },
    {
      "inputs": [],
      "name": "data",
      "outputs": [
        {
          "internalType": "string",
          "name": "title",
          "type": "string"
        },
        {
          "internalType": "string",
          "name": "description",
          "type": "string"
        },
        {
          "internalType": "string",
          "name": "status",
          "type": "string"
        },
        {
          "internalType": "uint64",
          "name": "effort",
          "type": "uint64"
        },
        {
          "internalType": "bytes3",
          "name": "color",
          "type": "bytes3"
        }
      ],
      "stateMutability": "view",
      "type": "function"
    },
    {
      "inputs": [],
      "name": "decimals",
      "outputs": [
        {
          "internalType": "uint8",
          "name": "",
          "type": "uint8"
        }
      ],
      "stateMutability": "view",
      "type": "function"
    },
    {
      "inputs": [
        {
          "internalType": "address",
          "name": "spender",
          "type": "address"
        },
        {
          "internalType": "uint256",
          "name": "subtractedValue",
          "type": "uint256"
        }
      ],
      "name": "decreaseAllowance",
      "outputs": [
        {
          "internalType": "bool",
          "name": "",
          "type": "bool"
        }
      ],
      "stateMutability": "nonpayable",
      "type": "function"
    },
    {
      "inputs": [],
      "name": "getCallersPermissions",
      "outputs": [
        {
          "internalType": "uint8",
          "name": "",
          "type": "uint8"
        }
      ],
      "stateMutability": "view",
      "type": "function"
    },
    {
      "inputs": [],
      "name": "getConfirmedContributions",
      "outputs": [
        {
          "internalType": "address[]",
          "name": "",
          "type": "address[]"
        }
      ],
      "stateMutability": "view",
      "type": "function"
    },
    {
      "inputs": [],
      "name": "getContributors",
      "outputs": [
        {
          "internalType": "address[]",
          "name": "",
          "type": "address[]"
        }
      ],
      "stateMutability": "view",
      "type": "function"
    },
    {
      "inputs": [],
      "name": "getInvestment",
      "outputs": [
        {
          "internalType": "uint256",
          "name": "",
          "type": "uint256"
        }
      ],
      "stateMutability": "view",
      "type": "function"
    },
    {
      "inputs": [],
      "name": "getMembers",
      "outputs": [
        {
          "internalType": "address[]",
          "name": "",
          "type": "address[]"
        }
      ],
      "stateMutability": "view",
      "type": "function"
    },
    {
      "inputs": [
        {
          "internalType": "address",
          "name": "spender",
          "type": "address"
        },
        {
          "internalType": "uint256",
          "name": "addedValue",
          "type": "uint256"
        }
      ],
      "name": "increaseAllowance",
      "outputs": [
        {
          "internalType": "bool",
          "name": "",
          "type": "bool"
        }
      ],
      "stateMutability": "nonpayable",
      "type": "function"
    },
    {
      "inputs": [
        {
          "internalType": "address",
          "name": "creator",
          "type": "address"
        },
        {
          "components": [
            {
              "internalType": "string",
              "name": "title",
              "type": "string"
            },
            {
              "internalType": "string",
              "name": "description",
              "type": "string"
            },
            {
              "internalType": "string",
              "name": "status",
              "type": "string"
            },
            {
              "internalType": "uint64",
              "name": "effort",
              "type": "uint64"
            },
            {
              "internalType": "bytes3",
              "name": "color",
              "type": "bytes3"
            }
          ],
          "internalType": "struct AimData",
          "name": "_data",
          "type": "tuple"
        },
        {
          "internalType": "uint16",
          "name": "_loopWeight",
          "type": "uint16"
        },
        {
          "internalType": "string",
          "name": "_tokenName",
          "type": "string"
        },
        {
          "internalType": "string",
          "name": "_tokenSymbol",
          "type": "string"
        },
        {
          "internalType": "uint128",
          "name": "initialAmount",
          "type": "uint128"
        }
      ],
      "name": "init",
      "outputs": [],
      "stateMutability": "payable",
      "type": "function"
    },
    {
      "inputs": [],
      "name": "initialized",
      "outputs": [
        {
          "internalType": "bool",
          "name": "",
          "type": "bool"
        }
      ],
      "stateMutability": "view",
      "type": "function"
    },
    {
      "inputs": [],
      "name": "loopWeight",
      "outputs": [
        {
          "internalType": "uint16",
          "name": "",
          "type": "uint16"
        }
      ],
      "stateMutability": "view",
      "type": "function"
    },
    {
      "inputs": [
        {
          "internalType": "address",
          "name": "",
          "type": "address"
        }
      ],
      "name": "memberExists",
      "outputs": [
        {
          "internalType": "int8",
          "name": "",
          "type": "int8"
        }
      ],
      "stateMutability": "view",
      "type": "function"
    },
    {
      "inputs": [],
      "name": "name",
      "outputs": [
        {
          "internalType": "string",
          "name": "",
          "type": "string"
        }
      ],
      "stateMutability": "view",
      "type": "function"
    },
    {
      "inputs": [],
      "name": "owner",
      "outputs": [
        {
          "internalType": "address",
          "name": "",
          "type": "address"
        }
      ],
      "stateMutability": "view",
      "type": "function"
    },
    {
      "inputs": [
        {
          "internalType": "address",
          "name": "",
          "type": "address"
        }
      ],
      "name": "permissions",
      "outputs": [
        {
          "internalType": "uint8",
          "name": "",
          "type": "uint8"
        }
      ],
      "stateMutability": "view",
      "type": "function"
    },
    {
      "inputs": [
        {
          "internalType": "address",
          "name": "_from",
          "type": "address"
        }
      ],
      "name": "removeInflow",
      "outputs": [],
      "stateMutability": "nonpayable",
      "type": "function"
    },
    {
      "inputs": [],
      "name": "renounceOwnership",
      "outputs": [],
      "stateMutability": "nonpayable",
      "type": "function"
    },
    {
      "inputs": [
        {
          "internalType": "address",
          "name": "addr",
          "type": "address"
        }
      ],
      "name": "revokeContributionConfirmation",
      "outputs": [],
      "stateMutability": "nonpayable",
      "type": "function"
    },
    {
      "inputs": [
        {
          "internalType": "uint128",
          "name": "amount",
          "type": "uint128"
        },
        {
          "internalType": "uint256",
          "name": "minPayout",
          "type": "uint256"
        }
      ],
      "name": "sell",
      "outputs": [],
      "stateMutability": "nonpayable",
      "type": "function"
    },
    {
      "inputs": [
        {
          "internalType": "address[]",
          "name": "addrs",
          "type": "address[]"
        },
        {
          "internalType": "bool[]",
          "name": "confirmeds",
          "type": "bool[]"
        }
      ],
      "name": "setContributionConfirmations",
      "outputs": [],
      "stateMutability": "nonpayable",
      "type": "function"
    },
    {
      "inputs": [
        {
          "internalType": "uint16",
          "name": "_loopWeight",
          "type": "uint16"
        }
      ],
      "name": "setLoopWeight",
      "outputs": [],
      "stateMutability": "nonpayable",
      "type": "function"
    },
    {
      "inputs": [
        {
          "internalType": "address",
          "name": "addr",
          "type": "address"
        },
        {
          "internalType": "uint8",
          "name": "_permissions",
          "type": "uint8"
        }
      ],
      "name": "setPermissions",
      "outputs": [],
      "stateMutability": "nonpayable",
      "type": "function"
    },
    {
      "inputs": [
        {
          "internalType": "address[]",
          "name": "addrs",
          "type": "address[]"
        },
        {
          "internalType": "uint8[]",
          "name": "_permissions",
          "type": "uint8[]"
        }
      ],
      "name": "setPermissionsForMultipleMembers",
      "outputs": [],
      "stateMutability": "nonpayable",
      "type": "function"
    },
    {
      "inputs": [],
      "name": "symbol",
      "outputs": [
        {
          "internalType": "string",
          "name": "",
          "type": "string"
        }
      ],
      "stateMutability": "view",
      "type": "function"
    },
    {
      "inputs": [],
      "name": "totalSupply",
      "outputs": [
        {
          "internalType": "uint256",
          "name": "",
          "type": "uint256"
        }
      ],
      "stateMutability": "view",
      "type": "function"
    },
    {
      "inputs": [
        {
          "internalType": "address",
          "name": "to",
          "type": "address"
        },
        {
          "internalType": "uint256",
          "name": "amount",
          "type": "uint256"
        }
      ],
      "name": "transfer",
      "outputs": [
        {
          "internalType": "bool",
          "name": "",
          "type": "bool"
        }
      ],
      "stateMutability": "nonpayable",
      "type": "function"
    },
    {
      "inputs": [
        {
          "internalType": "address",
          "name": "from",
          "type": "address"
        },
        {
          "internalType": "address",
          "name": "to",
          "type": "address"
        },
        {
          "internalType": "uint256",
          "name": "amount",
          "type": "uint256"
        }
      ],
      "name": "transferFrom",
      "outputs": [
        {
          "internalType": "bool",
          "name": "",
          "type": "bool"
        }
      ],
      "stateMutability": "nonpayable",
      "type": "function"
    },
    {
      "inputs": [
        {
          "internalType": "address",
          "name": "newOwner",
          "type": "address"
        }
      ],
      "name": "transferOwnership",
      "outputs": [],
      "stateMutability": "nonpayable",
      "type": "function"
    },
    {
      "inputs": [
        {
          "internalType": "bytes3",
          "name": "_color",
          "type": "bytes3"
        }
      ],
      "name": "updateAimColor",
      "outputs": [],
      "stateMutability": "nonpayable",
      "type": "function"
    },
    {
      "inputs": [
        {
          "internalType": "string",
          "name": "_description",
          "type": "string"
        }
      ],
      "name": "updateAimDescription",
      "outputs": [],
      "stateMutability": "nonpayable",
      "type": "function"
    },
    {
      "inputs": [
        {
          "internalType": "string",
          "name": "_description",
          "type": "string"
        },
        {
          "internalType": "bytes3",
          "name": "_color",
          "type": "bytes3"
        }
      ],
      "name": "updateAimDescriptionColor",
      "outputs": [],
      "stateMutability": "nonpayable",
      "type": "function"
    },
    {
      "inputs": [
        {
          "internalType": "string",
          "name": "_description",
          "type": "string"
        },
        {
          "internalType": "uint64",
          "name": "_effort",
          "type": "uint64"
        }
      ],
      "name": "updateAimDescriptionEffort",
      "outputs": [],
      "stateMutability": "nonpayable",
      "type": "function"
    },
    {
      "inputs": [
        {
          "internalType": "string",
          "name": "_description",
          "type": "string"
        },
        {
          "internalType": "uint64",
          "name": "_effort",
          "type": "uint64"
        },
        {
          "internalType": "bytes3",
          "name": "_color",
          "type": "bytes3"
        }
      ],
      "name": "updateAimDescriptionEffortColor",
      "outputs": [],
      "stateMutability": "nonpayable",
      "type": "function"
    },
    {
      "inputs": [
        {
          "internalType": "string",
          "name": "_description",
          "type": "string"
        },
        {
          "internalType": "string",
          "name": "_status",
          "type": "string"
        }
      ],
      "name": "updateAimDescriptionStatus",
      "outputs": [],
      "stateMutability": "nonpayable",
      "type": "function"
    },
    {
      "inputs": [
        {
          "internalType": "string",
          "name": "_description",
          "type": "string"
        },
        {
          "internalType": "string",
          "name": "_status",
          "type": "string"
        },
        {
          "internalType": "bytes3",
          "name": "_color",
          "type": "bytes3"
        }
      ],
      "name": "updateAimDescriptionStatusColor",
      "outputs": [],
      "stateMutability": "nonpayable",
      "type": "function"
    },
    {
      "inputs": [
        {
          "internalType": "string",
          "name": "_description",
          "type": "string"
        },
        {
          "internalType": "string",
          "name": "_status",
          "type": "string"
        },
        {
          "internalType": "uint64",
          "name": "_effort",
          "type": "uint64"
        }
      ],
      "name": "updateAimDescriptionStatusEffort",
      "outputs": [],
      "stateMutability": "nonpayable",
      "type": "function"
    },
    {
      "inputs": [
        {
          "internalType": "string",
          "name": "_description",
          "type": "string"
        },
        {
          "internalType": "string",
          "name": "_status",
          "type": "string"
        },
        {
          "internalType": "uint64",
          "name": "_effort",
          "type": "uint64"
        },
        {
          "internalType": "bytes3",
          "name": "_color",
          "type": "bytes3"
        }
      ],
      "name": "updateAimDescriptionStatusEffortColor",
      "outputs": [],
      "stateMutability": "nonpayable",
      "type": "function"
    },
    {
      "inputs": [
        {
          "internalType": "uint64",
          "name": "_effort",
          "type": "uint64"
        }
      ],
      "name": "updateAimEffort",
      "outputs": [],
      "stateMutability": "nonpayable",
      "type": "function"
    },
    {
      "inputs": [
        {
          "internalType": "uint64",
          "name": "_effort",
          "type": "uint64"
        },
        {
          "internalType": "bytes3",
          "name": "_color",
          "type": "bytes3"
        }
      ],
      "name": "updateAimEffortColor",
      "outputs": [],
      "stateMutability": "nonpayable",
      "type": "function"
    },
    {
      "inputs": [
        {
          "internalType": "string",
          "name": "_status",
          "type": "string"
        }
      ],
      "name": "updateAimStatus",
      "outputs": [],
      "stateMutability": "nonpayable",
      "type": "function"
    },
    {
      "inputs": [
        {
          "internalType": "string",
          "name": "_status",
          "type": "string"
        },
        {
          "internalType": "bytes3",
          "name": "_color",
          "type": "bytes3"
        }
      ],
      "name": "updateAimStatusColor",
      "outputs": [],
      "stateMutability": "nonpayable",
      "type": "function"
    },
    {
      "inputs": [
        {
          "internalType": "string",
          "name": "_status",
          "type": "string"
        },
        {
          "internalType": "uint64",
          "name": "_effort",
          "type": "uint64"
        }
      ],
      "name": "updateAimStatusEffort",
      "outputs": [],
      "stateMutability": "nonpayable",
      "type": "function"
    },
    {
      "inputs": [
        {
          "internalType": "string",
          "name": "_status",
          "type": "string"
        },
        {
          "internalType": "uint64",
          "name": "_effort",
          "type": "uint64"
        },
        {
          "internalType": "bytes3",
          "name": "_color",
          "type": "bytes3"
        }
      ],
      "name": "updateAimStatusEffortColor",
      "outputs": [],
      "stateMutability": "nonpayable",
      "type": "function"
    },
    {
      "inputs": [
        {
          "internalType": "string",
          "name": "_title",
          "type": "string"
        }
      ],
      "name": "updateAimTitle",
      "outputs": [],
      "stateMutability": "nonpayable",
      "type": "function"
    },
    {
      "inputs": [
        {
          "internalType": "string",
          "name": "_title",
          "type": "string"
        },
        {
          "internalType": "bytes3",
          "name": "_color",
          "type": "bytes3"
        }
      ],
      "name": "updateAimTitleColor",
      "outputs": [],
      "stateMutability": "nonpayable",
      "type": "function"
    },
    {
      "inputs": [
        {
          "internalType": "string",
          "name": "_title",
          "type": "string"
        },
        {
          "internalType": "string",
          "name": "_description",
          "type": "string"
        }
      ],
      "name": "updateAimTitleDescription",
      "outputs": [],
      "stateMutability": "nonpayable",
      "type": "function"
    },
    {
      "inputs": [
        {
          "internalType": "string",
          "name": "_title",
          "type": "string"
        },
        {
          "internalType": "string",
          "name": "_description",
          "type": "string"
        },
        {
          "internalType": "bytes3",
          "name": "_color",
          "type": "bytes3"
        }
      ],
      "name": "updateAimTitleDescriptionColor",
      "outputs": [],
      "stateMutability": "nonpayable",
      "type": "function"
    },
    {
      "inputs": [
        {
          "internalType": "string",
          "name": "_title",
          "type": "string"
        },
        {
          "internalType": "string",
          "name": "_description",
          "type": "string"
        },
        {
          "internalType": "uint64",
          "name": "_effort",
          "type": "uint64"
        }
      ],
      "name": "updateAimTitleDescriptionEffort",
      "outputs": [],
      "stateMutability": "nonpayable",
      "type": "function"
    },
    {
      "inputs": [
        {
          "internalType": "string",
          "name": "_title",
          "type": "string"
        },
        {
          "internalType": "string",
          "name": "_description",
          "type": "string"
        },
        {
          "internalType": "uint64",
          "name": "_effort",
          "type": "uint64"
        },
        {
          "internalType": "bytes3",
          "name": "_color",
          "type": "bytes3"
        }
      ],
      "name": "updateAimTitleDescriptionEffortColor",
      "outputs": [],
      "stateMutability": "nonpayable",
      "type": "function"
    },
    {
      "inputs": [
        {
          "internalType": "string",
          "name": "_title",
          "type": "string"
        },
        {
          "internalType": "string",
          "name": "_description",
          "type": "string"
        },
        {
          "internalType": "string",
          "name": "_status",
          "type": "string"
        }
      ],
      "name": "updateAimTitleDescriptionStatus",
      "outputs": [],
      "stateMutability": "nonpayable",
      "type": "function"
    },
    {
      "inputs": [
        {
          "internalType": "string",
          "name": "_title",
          "type": "string"
        },
        {
          "internalType": "string",
          "name": "_description",
          "type": "string"
        },
        {
          "internalType": "string",
          "name": "_status",
          "type": "string"
        },
        {
          "internalType": "bytes3",
          "name": "_color",
          "type": "bytes3"
        }
      ],
      "name": "updateAimTitleDescriptionStatusColor",
      "outputs": [],
      "stateMutability": "nonpayable",
      "type": "function"
    },
    {
      "inputs": [
        {
          "internalType": "string",
          "name": "_title",
          "type": "string"
        },
        {
          "internalType": "string",
          "name": "_description",
          "type": "string"
        },
        {
          "internalType": "string",
          "name": "_status",
          "type": "string"
        },
        {
          "internalType": "uint64",
          "name": "_effort",
          "type": "uint64"
        }
      ],
      "name": "updateAimTitleDescriptionStatusEffort",
      "outputs": [],
      "stateMutability": "nonpayable",
      "type": "function"
    },
    {
      "inputs": [
        {
          "internalType": "string",
          "name": "_title",
          "type": "string"
        },
        {
          "internalType": "string",
          "name": "_description",
          "type": "string"
        },
        {
          "internalType": "string",
          "name": "_status",
          "type": "string"
        },
        {
          "internalType": "uint64",
          "name": "_effort",
          "type": "uint64"
        },
        {
          "internalType": "bytes3",
          "name": "_color",
          "type": "bytes3"
        }
      ],
      "name": "updateAimTitleDescriptionStatusEffortColor",
      "outputs": [],
      "stateMutability": "nonpayable",
      "type": "function"
    },
    {
      "inputs": [
        {
          "internalType": "string",
          "name": "_title",
          "type": "string"
        },
        {
          "internalType": "uint64",
          "name": "_effort",
          "type": "uint64"
        }
      ],
      "name": "updateAimTitleEffort",
      "outputs": [],
      "stateMutability": "nonpayable",
      "type": "function"
    },
    {
      "inputs": [
        {
          "internalType": "string",
          "name": "_title",
          "type": "string"
        },
        {
          "internalType": "uint64",
          "name": "_effort",
          "type": "uint64"
        },
        {
          "internalType": "bytes3",
          "name": "_color",
          "type": "bytes3"
        }
      ],
      "name": "updateAimTitleEffortColor",
      "outputs": [],
      "stateMutability": "nonpayable",
      "type": "function"
    },
    {
      "inputs": [
        {
          "internalType": "string",
          "name": "_title",
          "type": "string"
        },
        {
          "internalType": "string",
          "name": "_status",
          "type": "string"
        }
      ],
      "name": "updateAimTitleStatus",
      "outputs": [],
      "stateMutability": "nonpayable",
      "type": "function"
    },
    {
      "inputs": [
        {
          "internalType": "string",
          "name": "_title",
          "type": "string"
        },
        {
          "internalType": "string",
          "name": "_status",
          "type": "string"
        },
        {
          "internalType": "bytes3",
          "name": "_color",
          "type": "bytes3"
        }
      ],
      "name": "updateAimTitleStatusColor",
      "outputs": [],
      "stateMutability": "nonpayable",
      "type": "function"
    },
    {
      "inputs": [
        {
          "internalType": "string",
          "name": "_title",
          "type": "string"
        },
        {
          "internalType": "string",
          "name": "_status",
          "type": "string"
        },
        {
          "internalType": "uint64",
          "name": "_effort",
          "type": "uint64"
        }
      ],
      "name": "updateAimTitleStatusEffort",
      "outputs": [],
      "stateMutability": "nonpayable",
      "type": "function"
    },
    {
      "inputs": [
        {
          "internalType": "string",
          "name": "_title",
          "type": "string"
        },
        {
          "internalType": "string",
          "name": "_status",
          "type": "string"
        },
        {
          "internalType": "uint64",
          "name": "_effort",
          "type": "uint64"
        },
        {
          "internalType": "bytes3",
          "name": "_color",
          "type": "bytes3"
        }
      ],
      "name": "updateAimTitleStatusEffortColor",
      "outputs": [],
      "stateMutability": "nonpayable",
      "type": "function"
    },
    {
      "inputs": [
        {
          "internalType": "address",
          "name": "_from",
          "type": "address"
        },
        {
          "internalType": "bytes8",
          "name": "_d2d",
          "type": "bytes8"
        }
      ],
      "name": "updateFlowD2d",
      "outputs": [],
      "stateMutability": "nonpayable",
      "type": "function"
    },
    {
      "inputs": [
        {
          "internalType": "address",
          "name": "_from",
          "type": "address"
        },
        {
          "internalType": "string",
          "name": "_explanation",
          "type": "string"
        }
      ],
      "name": "updateFlowExplanation",
      "outputs": [],
      "stateMutability": "nonpayable",
      "type": "function"
    },
    {
      "inputs": [
        {
          "internalType": "address",
          "name": "_from",
          "type": "address"
        },
        {
          "internalType": "string",
          "name": "_explanation",
          "type": "string"
        },
        {
          "internalType": "bytes8",
          "name": "_d2d",
          "type": "bytes8"
        }
      ],
      "name": "updateFlowExplanationD2d",
      "outputs": [],
      "stateMutability": "nonpayable",
      "type": "function"
    },
    {
      "inputs": [
        {
          "internalType": "address",
          "name": "_from",
          "type": "address"
        },
        {
          "internalType": "string",
          "name": "_explanation",
          "type": "string"
        },
        {
          "internalType": "uint16",
          "name": "_weight",
          "type": "uint16"
        }
      ],
      "name": "updateFlowExplanationWeight",
      "outputs": [],
      "stateMutability": "nonpayable",
      "type": "function"
    },
    {
      "inputs": [
        {
          "internalType": "address",
          "name": "_from",
          "type": "address"
        },
        {
          "internalType": "string",
          "name": "_explanation",
          "type": "string"
        },
        {
          "internalType": "uint16",
          "name": "_weight",
          "type": "uint16"
        },
        {
          "internalType": "bytes8",
          "name": "_d2d",
          "type": "bytes8"
        }
      ],
      "name": "updateFlowExplanationWeightD2d",
      "outputs": [],
      "stateMutability": "nonpayable",
      "type": "function"
    },
    {
      "inputs": [
        {
          "internalType": "address",
          "name": "_from",
          "type": "address"
        },
        {
          "internalType": "uint16",
          "name": "_weight",
          "type": "uint16"
        }
      ],
      "name": "updateFlowWeight",
      "outputs": [],
      "stateMutability": "nonpayable",
      "type": "function"
    },
    {
      "inputs": [
        {
          "internalType": "address",
          "name": "_from",
          "type": "address"
        },
        {
          "internalType": "uint16",
          "name": "_weight",
          "type": "uint16"
        },
        {
          "internalType": "bytes8",
          "name": "_d2d",
          "type": "bytes8"
        }
      ],
      "name": "updateFlowWeightD2d",
      "outputs": [],
      "stateMutability": "nonpayable",
      "type": "function"
    }
  ],
  "bytecode": "0x608060405260405162005364380380620053648339810160408190526200002691620003c9565b604080516020808201835260008083528351918201909352918252906200004d33620001eb565b81516200006290600490602085019062000323565b5080516200007890600590602084019062000323565b5050506002816001600160801b031662000093919062000533565b34146200009f57600080fd5b620000b4826001600160801b0383166200023b565b620000bf82620001eb565b60408051808201909152600a8082526961696d706172656e637960b01b6020909201918252620000f29160099162000323565b506040805180820190915260038082526207769760ec1b60209092019182526200011f91600b9162000323565b50604051806060016040528060218152602001620053436021913980516200015091600a9160209091019062000323565b50600c80546001600160581b0319166a99999900000000370014001781556008805462ffff00191662800000179055604080518082019091528181526b185a5b5c185c995b98d95b9d60a21b6020909101908152620001b3916006919062000323565b50604080518082019091526005808252644d50524e4360d81b6020909201918252620001e29160079162000323565b505050620005a3565b600080546001600160a01b038381166001600160a01b0319831681178455604051919092169283917f8be0079c531659141344cd1fd0a4f28419497f9722a3daafe3b4186f6b6457e09190a35050565b6001600160a01b038216620002965760405162461bcd60e51b815260206004820152601f60248201527f45524332303a206d696e7420746f20746865207a65726f206164647265737300604482015260640160405180910390fd5b8060036000828254620002aa91906200054b565b90915550506001600160a01b03821660009081526001602052604081208054839290620002d99084906200054b565b90915550506040518181526001600160a01b038316906000907fddf252ad1be2c89b69c2b068fc378daa952ba7f163c4a11628f55a4df523b3ef9060200160405180910390a35050565b828054620003319062000566565b90600052602060002090601f016020900481019282620003555760008555620003a0565b82601f106200037057805160ff1916838001178555620003a0565b82800160010185558215620003a0579182015b82811115620003a057825182559160200191906001019062000383565b50620003ae929150620003b2565b5090565b5b80821115620003ae5760008155600101620003b3565b60008060408385031215620003dd57600080fd5b82516001600160a01b0381168114620003f557600080fd5b60208401519092506001600160801b03811681146200041357600080fd5b809150509250929050565b634e487b7160e01b600052601160045260246000fd5b600181815b80851115620004755781600019048211156200045957620004596200041e565b808516156200046757918102915b93841c939080029062000439565b509250929050565b6000826200048e575060016200052d565b816200049d575060006200052d565b8160018114620004b65760028114620004c157620004e1565b60019150506200052d565b60ff841115620004d557620004d56200041e565b50506001821b6200052d565b5060208310610133831016604e8410600b841016171562000506575081810a6200052d565b62000512838362000434565b80600019048211156200052957620005296200041e565b0290505b92915050565b60006200054460ff8416836200047d565b9392505050565b600082198211156200056157620005616200041e565b500190565b600181811c908216806200057b57607f821691505b602082108114156200059d57634e487b7160e01b600052602260045260246000fd5b50919050565b614d9080620005b36000396000f3fe60806040526004361061043c5760003560e01c806365f16b181161023457806396d0e98e1161012e578063c3f1a710116100b6578063de93b3af1161007a578063de93b3af14610d52578063df36294514610d72578063f2fde38b14610d92578063fb64ee7314610db2578063fc7f8cc914610dd257600080fd5b8063c3f1a71014610cb0578063c5c20f4614610cd2578063c672900d14610cf2578063c9cb2dcc14610d12578063dd62ed3e14610d3257600080fd5b8063a9059cbb116100fd578063a9059cbb14610c1b578063af157c1914610c3b578063afb166a214610c50578063b4488eeb14610c70578063b513b85814610c9057600080fd5b806396d0e98e14610ba65780639eab525314610bc65780639fc0536814610bdb578063a457c2d714610bfb57600080fd5b806380b2cf71116101bc5780638d7d8d37116101805780638d7d8d3714610b145780638da5cb5b14610b34578063901001b614610b5c57806395d89b4114610b715780639681ba8514610b8657600080fd5b806380b2cf7114610a745780638141467414610a94578063849dcc6d14610ab457806388ff768714610ad45780638d3347ce14610af457600080fd5b806373d4a13a1161020357806373d4a13a146109ce5780637408fc3f146109f45780637725ef6414610a145780637cf1d58114610a345780637f6bf7c214610a5457600080fd5b806365f16b18146109435780636ccf9f191461096357806370a0823114610983578063715018a6146109b957600080fd5b80632c8431511161034557806347b59bef116102cd578063561fbae311610291578063561fbae3146108ae57806356efe10a146108ce57806358c709a1146108ee57806358db52a21461091057806361a3c86e1461092357600080fd5b806347b59bef146107fb578063493dc5351461081b57806350c44a4d1461083b57806350f96d121461086e57806353ec4a581461088e57600080fd5b80633c90c515116103145780633c90c5151461074b5780633e1e27051461075e5780634152891f1461078d57806342e94c90146107ad578063465e33f6146107db57600080fd5b80632c843151146106d7578063313ce567146106f7578063375a4c0f1461070b578063395093511461072b57600080fd5b806318160ddd116103c85780631f0001c6116103975780631f0001c61461063757806323206f4a1461065757806323b872dd1461067757806325946eea14610697578063265df83a146106b757600080fd5b806318160ddd14610596578063199d5a88146105b55780631d15604d146105f75780631dc577d61461061757600080fd5b8063095ea7b31161040f578063095ea7b3146104ec5780630b71d3411461051c578063146db1331461053c57806314eba0d41461055c578063158ef93e1461057c57600080fd5b806301e882081461044157806305eb22ea1461048857806306fdde03146104aa5780630949a4ff146104cc575b600080fd5b34801561044d57600080fd5b5061047161045c36600461391f565b600f6020526000908152604090205460ff1681565b60405160ff90911681526020015b60405180910390f35b34801561049457600080fd5b506104a86104a3366004613989565b610df2565b005b3480156104b657600080fd5b506104bf610e52565b60405161047f9190613a17565b3480156104d857600080fd5b506104a86104e7366004613a40565b610ee4565b3480156104f857600080fd5b5061050c610507366004613a77565b610f6a565b604051901515815260200161047f565b34801561052857600080fd5b506104a8610537366004613989565b610f84565b34801561054857600080fd5b506104a8610557366004613acc565b610fd6565b34801561056857600080fd5b506104a8610577366004613b60565b61106a565b34801561058857600080fd5b5060085461050c9060ff1681565b3480156105a257600080fd5b506003545b60405190815260200161047f565b3480156105c157600080fd5b506105e46105d036600461391f565b600e60205260009081526040812054900b81565b60405160009190910b815260200161047f565b34801561060357600080fd5b506104a8610612366004613bb6565b6110e2565b34801561062357600080fd5b506104a8610632366004613c49565b611169565b34801561064357600080fd5b506104a8610652366004613cb5565b611207565b34801561066357600080fd5b506104a8610672366004613d62565b61129d565b34801561068357600080fd5b5061050c610692366004613dd7565b611324565b3480156106a357600080fd5b506104a86106b2366004613e13565b611348565b3480156106c357600080fd5b506104a86106d2366004613e7a565b6113cd565b3480156106e357600080fd5b506104a86106f2366004613ee5565b611433565b34801561070357600080fd5b506012610471565b34801561071757600080fd5b506104a8610726366004613acc565b6115a9565b34801561073757600080fd5b5061050c610746366004613a77565b611608565b6104a8610759366004613f45565b61162a565b34801561076a57600080fd5b506105e461077936600461391f565b601460205260009081526040812054900b81565b34801561079957600080fd5b506104a86107a8366004614016565b611796565b3480156107b957600080fd5b506107cd6107c836600461391f565b61182d565b60405161047f929190614070565b3480156107e757600080fd5b506104a86107f63660046140c4565b611913565b34801561080757600080fd5b506104a861081636600461415a565b61197f565b34801561082757600080fd5b506104a8610836366004613b60565b611a3c565b34801561084757600080fd5b5060085461085b90610100900461ffff1681565b60405161ffff909116815260200161047f565b34801561087a57600080fd5b506104a861088936600461415a565b611a8e565b34801561089a57600080fd5b506104a86108a9366004613bb6565b611b89565b3480156108ba57600080fd5b506104a86108c9366004613989565b611be8565b3480156108da57600080fd5b506104a86108e93660046141b9565b611c3a565b3480156108fa57600080fd5b50610903611c9e565b60405161047f91906141d6565b6104a861091e366004614223565b611d93565b34801561092f57600080fd5b506104a861093e36600461423e565b611f16565b34801561094f57600080fd5b506104a861095e36600461425b565b611f7f565b34801561096f57600080fd5b506104a861097e366004613e13565b612022565b34801561098f57600080fd5b506105a761099e36600461391f565b6001600160a01b031660009081526001602052604090205490565b3480156109c557600080fd5b506104a8612074565b3480156109da57600080fd5b506109e36120da565b60405161047f95949392919061431a565b348015610a0057600080fd5b506104a8610a0f366004613acc565b6122a3565b348015610a2057600080fd5b506104a8610a2f366004614380565b6122f5565b348015610a4057600080fd5b506104a8610a4f366004613bb6565b61237e565b348015610a6057600080fd5b506104a8610a6f3660046143da565b6123d0565b348015610a8057600080fd5b506104a8610a8f36600461391f565b612460565b348015610aa057600080fd5b506104a8610aaf366004614418565b61250a565b348015610ac057600080fd5b506104a8610acf366004613d62565b6125a0565b348015610ae057600080fd5b506104a8610aef366004613e7a565b6125ff565b348015610b0057600080fd5b506104a8610b0f3660046144b5565b612651565b348015610b2057600080fd5b506104a8610b2f366004614500565b6126c9565b348015610b4057600080fd5b506000546040516001600160a01b03909116815260200161047f565b348015610b6857600080fd5b5061047161273f565b348015610b7d57600080fd5b506104bf612780565b348015610b9257600080fd5b506104a8610ba136600461452e565b61278f565b348015610bb257600080fd5b506104a8610bc13660046144b5565b6127f8565b348015610bd257600080fd5b5061090361284a565b348015610be757600080fd5b506104a8610bf6366004613e13565b6128ab565b348015610c0757600080fd5b5061050c610c16366004613a77565b6128fd565b348015610c2757600080fd5b5061050c610c36366004613a77565b612978565b348015610c4757600080fd5b50610903612986565b348015610c5c57600080fd5b506104a8610c6b36600461454b565b6129e6565b348015610c7c57600080fd5b506104a8610c8b3660046145f5565b612a5b565b348015610c9c57600080fd5b506104a8610cab3660046144b5565b612b41565b348015610cbc57600080fd5b50336000908152600160205260409020546105a7565b348015610cde57600080fd5b506104a8610ced36600461391f565b612b93565b348015610cfe57600080fd5b506104a8610d0d366004613b60565b612be5565b348015610d1e57600080fd5b506104a8610d2d366004614628565b612c37565b348015610d3e57600080fd5b506105a7610d4d366004614654565b612caf565b348015610d5e57600080fd5b506104a8610d6d36600461391f565b612cda565b348015610d7e57600080fd5b506104a8610d8d36600461467e565b612d29565b348015610d9e57600080fd5b506104a8610dad36600461391f565b612e92565b348015610dbe57600080fd5b506104a8610dcd366004613e7a565b612ea6565b348015610dde57600080fd5b506104a8610ded366004613d62565b612f05565b6000546001600160a01b0316331480610e1c5750336000908152600f602052604090205460011615155b610e415760405162461bcd60e51b8152600401610e389061469a565b60405180910390fd5b610e4d600a838361386a565b505050565b606060068054610e61906146e3565b80601f0160208091040260200160405190810160405280929190818152602001828054610e8d906146e3565b8015610eda5780601f10610eaf57610100808354040283529160200191610eda565b820191906000526020600020905b815481529060010190602001808311610ebd57829003601f168201915b5050505050905090565b6000546001600160a01b0316331480610f0e5750336000908152600f602052604090205460021615155b610f2a5760405162461bcd60e51b8152600401610e389061471e565b6001600160a01b039091166000908152601160205260409020600201805460c09290921c620100000269ffffffffffffffff000019909216919091179055565b600033610f78818585612f57565b60019150505b92915050565b6000546001600160a01b0316331480610fae5750336000908152600f602052604090205460011615155b610fca5760405162461bcd60e51b8152600401610e389061469a565b610e4d6009838361386a565b6000546001600160a01b03163314806110005750336000908152600f602052604090205460011615155b61101c5760405162461bcd60e51b8152600401610e389061469a565b6110286009878761386a565b50611035600b858561386a565b50600c805460e89290921c600160401b026001600160581b03199092166001600160401b039093169290921717905550505050565b6000546001600160a01b03163314806110945750336000908152600f602052604090205460011615155b6110b05760405162461bcd60e51b8152600401610e389061469a565b6110bc600b848461386a565b50600c805467ffffffffffffffff19166001600160401b03929092169190911790555050565b6000546001600160a01b031633148061110c5750336000908152600f602052604090205460011615155b6111285760405162461bcd60e51b8152600401610e389061469a565b6111346009868661386a565b50611141600a848461386a565b50600c805460e89290921c600160401b0262ffffff60401b1990921691909117905550505050565b6000546001600160a01b03163314806111935750336000908152600f602052604090205460021615155b6111af5760405162461bcd60e51b8152600401610e389061471e565b6001600160a01b03851660009081526011602052604090206001016111d581868661386a565b50600101805460c09290921c620100000269ffffffffffffffffffff1990921661ffff90931692909217179055505050565b6000546001600160a01b03163314806112315750336000908152600f602052604090205460011615155b61124d5760405162461bcd60e51b8152600401610e389061469a565b6112596009888861386a565b50611266600a868661386a565b50611273600b848461386a565b50600c805460e89290921c600160401b0262ffffff60401b19909216919091179055505050505050565b6000546001600160a01b03163314806112c75750336000908152600f602052604090205460011615155b6112e35760405162461bcd60e51b8152600401610e389061469a565b6112ef6009868661386a565b506112fc600b848461386a565b50600c805467ffffffffffffffff19166001600160401b039290921691909117905550505050565b60003361133285828561307b565b61133d8585856130f5565b506001949350505050565b6000546001600160a01b03163314806113725750336000908152600f602052604090205460011615155b61138e5760405162461bcd60e51b8152600401610e389061469a565b61139a6009858561386a565b50600c805460e89290921c600160401b026001600160581b03199092166001600160401b03909316929092171790555050565b6000546001600160a01b03163314806113f75750336000908152600f602052604090205460011615155b6114135760405162461bcd60e51b8152600401610e389061469a565b61141f600a858561386a565b5061142c600b838361386a565b5050505050565b6000546001600160a01b031633148061145d5750336000908152600f602052604090205460021615155b6114795760405162461bcd60e51b8152600401610e389061471e565b6001600160a01b0382166000908152601160205260408120805490910b600114156114dc5760405162461bcd60e51b8152602060048201526013602482015272666c6f7720616c72656164792065786973747360681b6044820152606401610e38565b6001600160a01b038316600090815260116020526040812054900b61154757601080546001810182556000919091527f1b6847dc741a1b0cd08d278845f9d819d87b734759afb55fe2de5cb82a9ae6720180546001600160a01b0319166001600160a01b0385161790555b816001820161155682826148f0565b5050805460ff19166001178155604080516001600160a01b03851681523060208201527f5414853ef9b291ca06b0719a4bd10d3c11df4edd883133f115a13d9642825553910160405180910390a1505050565b6000546001600160a01b03163314806115d35750336000908152600f602052604090205460011615155b6115ef5760405162461bcd60e51b8152600401610e389061469a565b6115fb6009878761386a565b50611035600a858561386a565b600033610f7881858561161b8383612caf565b6116259190614a22565b612f57565b60085460ff16156116875760405162461bcd60e51b815260206004820152602160248201527f61696d732063616e206f6e6c7920626520696e697469616c697a6564206f6e636044820152606560f81b6064820152608401610e38565b3461169b6001600160801b03831680614a3a565b146117245760405162461bcd60e51b815260206004820152604d60248201527f696e697469616c20696e766573746d656e742072657175697265732066756e6460448201527f7320746f20657175616c2074686520737175617265206f6620696e697469616c60648201526c081d1bdad95b88185b5bdd5b9d609a1b608482015260a401610e38565b6008805460ff1916600117905561173a886132c3565b8660096117478282614a73565b50506008805462ffff00191661010061ffff89160217905561176b6006868661386a565b506117786007848461386a565b5061178c88826001600160801b0316613313565b5050505050505050565b6000546001600160a01b03163314806117c05750336000908152600f602052604090205460021615155b6117dc5760405162461bcd60e51b8152600401610e389061471e565b6001600160a01b038416600090815260116020526040902060010161180281858561386a565b50600101805460c09290921c620100000269ffffffffffffffff000019909216919091179055505050565b60116020526000908152604080822080548251606081019093526001820180549190940b939192919082908290611863906146e3565b80601f016020809104026020016040519081016040528092919081815260200182805461188f906146e3565b80156118dc5780601f106118b1576101008083540402835291602001916118dc565b820191906000526020600020905b8154815290600101906020018083116118bf57829003601f168201915b50505091835250506001919091015461ffff8116602083015262010000900460c01b6001600160c01b031916604090910152905082565b6000546001600160a01b031633148061193d5750336000908152600f602052604090205460021615155b6119595760405162461bcd60e51b8152600401610e389061471e565b6001600160a01b038316600090815260116020526040902060010161142c81848461386a565b8281146119ce5760405162461bcd60e51b815260206004820152601860248201527f6172726179206c656e67746873206d757374206d6174636800000000000000006044820152606401610e38565b60005b8381101561142c57611a2a8585838181106119ee576119ee614bcb565b9050602002016020810190611a03919061391f565b848484818110611a1557611a15614bcb565b9050602002016020810190610c8b9190614be1565b80611a3481614bfc565b9150506119d1565b6000546001600160a01b0316331480611a665750336000908152600f602052604090205460011615155b611a825760405162461bcd60e51b8152600401610e389061469a565b6110bc600a848461386a565b6000546001600160a01b0316331480611ab85750336000908152600f602052604090205460021615155b611ad45760405162461bcd60e51b8152600401610e389061471e565b8260005b81811015611b8157838382818110611af257611af2614bcb565b9050602002016020810190611b079190614c17565b15611b4057611b3b868683818110611b2157611b21614bcb565b9050602002016020810190611b36919061391f565b6133f2565b611b6f565b611b6f868683818110611b5557611b55614bcb565b9050602002016020810190611b6a919061391f565b613501565b80611b7981614bfc565b915050611ad8565b505050505050565b6000546001600160a01b0316331480611bb35750336000908152600f602052604090205460011615155b611bcf5760405162461bcd60e51b8152600401610e389061469a565b611bdb600a868661386a565b50611141600b848461386a565b6000546001600160a01b0316331480611c125750336000908152600f602052604090205460011615155b611c2e5760405162461bcd60e51b8152600401610e389061469a565b610e4d600b838361386a565b6000546001600160a01b0316331480611c645750336000908152600f602052604090205460021615155b611c805760405162461bcd60e51b8152600401610e389061471e565b6008805461ffff9092166101000262ffff0019909216919091179055565b606060006012546001600160401b03811115611cbc57611cbc6147ac565b604051908082528060200260200182016040528015611ce5578160200160208202803683370190505b506013549091506000805b82811015611d8a57600060138281548110611d0d57611d0d614bcb565b60009182526020808320909101546001600160a01b031680835260149091526040822054909250900b60011415611d775780858481518110611d5157611d51614bcb565b6001600160a01b039092166020928302919091019091015282611d7381614bfc565b9350505b5080611d8281614bfc565b915050611cf0565b50919392505050565b6000816001600160801b0316611da860035490565b611db29190614a22565b90506001600160801b038110611de45760405162461bcd60e51b81526020600482015260006024820152604401610e38565b60006002611df160035490565b611dfb9190614d1d565b90506000611e0a600284614d1d565b90506000611e188383614d2c565b905034811115611e6a5760405162461bcd60e51b815260206004820152601760248201527f696e73756666696369656e742066756e64732073656e740000000000000000006044820152606401610e38565b80341480611e995750336108fc611e818334614d2c565b6040518115909202916000818181858888f193505050505b15611eb657611eb133866001600160801b0316613313565b61142c565b60405162461bcd60e51b815260206004820152602f60248201527f66756e64732073656e74206578636565647320707269636520616e642073656e60448201526e646572206e6f742070617961626c6560881b6064820152608401610e38565b6000546001600160a01b0316331480611f405750336000908152600f602052604090205460011615155b611f5c5760405162461bcd60e51b8152600401610e389061469a565b600c805460e89290921c600160401b0262ffffff60401b19909216919091179055565b6000546001600160a01b0316331480611fa95750336000908152600f602052604090205460011615155b611fc55760405162461bcd60e51b8152600401610e389061469a565b611fd16009898961386a565b50611fde600a878761386a565b50611feb600b858561386a565b50600c805460e89290921c600160401b026001600160581b03199092166001600160401b0390931692909217179055505050505050565b6000546001600160a01b031633148061204c5750336000908152600f602052604090205460011615155b6120685760405162461bcd60e51b8152600401610e389061469a565b61139a600a858561386a565b6000546001600160a01b031633146120ce5760405162461bcd60e51b815260206004820181905260248201527f4f776e61626c653a2063616c6c6572206973206e6f7420746865206f776e65726044820152606401610e38565b6120d860006132c3565b565b6009805481906120e9906146e3565b80601f0160208091040260200160405190810160405280929190818152602001828054612115906146e3565b80156121625780601f1061213757610100808354040283529160200191612162565b820191906000526020600020905b81548152906001019060200180831161214557829003601f168201915b505050505090806001018054612177906146e3565b80601f01602080910402602001604051908101604052809291908181526020018280546121a3906146e3565b80156121f05780601f106121c5576101008083540402835291602001916121f0565b820191906000526020600020905b8154815290600101906020018083116121d357829003601f168201915b505050505090806002018054612205906146e3565b80601f0160208091040260200160405190810160405280929190818152602001828054612231906146e3565b801561227e5780601f106122535761010080835404028352916020019161227e565b820191906000526020600020905b81548152906001019060200180831161226157829003601f168201915b505050600390930154919250506001600160401b03811690600160401b900460e81b85565b6000546001600160a01b03163314806122cd5750336000908152600f602052604090205460011615155b6122e95760405162461bcd60e51b8152600401610e389061469a565b611028600a878761386a565b6000546001600160a01b031633148061231f5750336000908152600f602052604090205460021615155b61233b5760405162461bcd60e51b8152600401610e389061471e565b6001600160a01b038416600090815260116020526040902060010161236181858561386a565b50600101805461ffff191661ffff92909216919091179055505050565b6000546001600160a01b03163314806123a85750336000908152600f602052604090205460011615155b6123c45760405162461bcd60e51b8152600401610e389061469a565b611bdb6009868661386a565b6000546001600160a01b03163314806123fa5750336000908152600f602052604090205460021615155b6124165760405162461bcd60e51b8152600401610e389061471e565b6001600160a01b039092166000908152601160205260409020600201805460c09390931c620100000269ffffffffffffffffffff1990931661ffff90921691909117919091179055565b6000546001600160a01b031633148061248a5750336000908152600f602052604090205460021615155b6124a65760405162461bcd60e51b8152600401610e389061471e565b6001600160a01b038116600081815260116020908152604091829020805460ff1916600217815582519384523091840191909152917faa300d84cb05e18e5308c6899532157490dcf91868f9a4f36f00e2f06dfbeb23910160405180910390a15050565b6000546001600160a01b03163314806125345750336000908152600f602052604090205460011615155b6125505760405162461bcd60e51b8152600401610e389061469a565b61255c6009888861386a565b50612569600a868661386a565b50612576600b848461386a565b50600c805467ffffffffffffffff19166001600160401b0392909216919091179055505050505050565b6000546001600160a01b03163314806125ca5750336000908152600f602052604090205460011615155b6125e65760405162461bcd60e51b8152600401610e389061469a565b6125f26009868661386a565b506112fc600a848461386a565b6000546001600160a01b03163314806126295750336000908152600f602052604090205460011615155b6126455760405162461bcd60e51b8152600401610e389061469a565b61141f6009858561386a565b6000546001600160a01b031633148061267b5750336000908152600f602052604090205460011615155b6126975760405162461bcd60e51b8152600401610e389061469a565b6126a36009848461386a565b50600c805460e89290921c600160401b0262ffffff60401b199092169190911790555050565b6000546001600160a01b03163314806126f35750336000908152600f602052604090205460011615155b61270f5760405162461bcd60e51b8152600401610e389061469a565b600c805460e89290921c600160401b026001600160581b03199092166001600160401b0390931692909217179055565b6000336127546000546001600160a01b031690565b6001600160a01b03161415612769575060ff90565b50336000908152600f602052604090205460ff1690565b606060078054610e61906146e3565b6000546001600160a01b03163314806127b95750336000908152600f602052604090205460011615155b6127d55760405162461bcd60e51b8152600401610e389061469a565b600c805467ffffffffffffffff19166001600160401b0392909216919091179055565b6000546001600160a01b03163314806128225750336000908152600f602052604090205460011615155b61283e5760405162461bcd60e51b8152600401610e389061469a565b6126a3600a848461386a565b6060600d805480602002602001604051908101604052809291908181526020018280548015610eda57602002820191906000526020600020905b81546001600160a01b03168152600190910190602001808311612884575050505050905090565b6000546001600160a01b03163314806128d55750336000908152600f602052604090205460011615155b6128f15760405162461bcd60e51b8152600401610e389061469a565b61139a600b858561386a565b6000338161290b8286612caf565b90508381101561296b5760405162461bcd60e51b815260206004820152602560248201527f45524332303a2064656372656173656420616c6c6f77616e63652062656c6f77604482015264207a65726f60d81b6064820152608401610e38565b61133d8286868403612f57565b600033610f788185856130f5565b60606010805480602002602001604051908101604052809291908181526020018280548015610eda576020028201919060005260206000209081546001600160a01b03168152600190910190602001808311612884575050505050905090565b6000546001600160a01b0316331480612a105750336000908152600f602052604090205460011615155b612a2c5760405162461bcd60e51b8152600401610e389061469a565b612a386009878761386a565b50612a45600a858561386a565b50612a52600b838361386a565b50505050505050565b6001600160a01b0382166000908152600f6020526040902054600460ff909116821817612a906000546001600160a01b031690565b6001600160a01b0316336001600160a01b03161480612ad15750336000908152600f602052604090205460ff80831691831616148015612ad1575060fc8216155b612b375760405162461bcd60e51b815260206004820152603160248201527f73656e64657220686173206e6f207065726d697373696f6e20746f20736574206044820152707468657365207065726d697373696f6e7360781b6064820152608401610e38565b610e4d83836135a4565b6000546001600160a01b0316331480612b6b5750336000908152600f602052604090205460011615155b612b875760405162461bcd60e51b8152600401610e389061469a565b6126a3600b848461386a565b6000546001600160a01b0316331480612bbd5750336000908152600f602052604090205460021615155b612bd95760405162461bcd60e51b8152600401610e389061471e565b612be2816133f2565b50565b6000546001600160a01b0316331480612c0f5750336000908152600f602052604090205460011615155b612c2b5760405162461bcd60e51b8152600401610e389061469a565b6110bc6009848461386a565b6000546001600160a01b0316331480612c615750336000908152600f602052604090205460021615155b612c7d5760405162461bcd60e51b8152600401610e389061471e565b6001600160a01b03919091166000908152601160205260409020600201805461ffff191661ffff909216919091179055565b6001600160a01b03918216600090815260026020908152604080832093909416825291909152205490565b6000546001600160a01b0316331480612d045750336000908152600f602052604090205460021615155b612d205760405162461bcd60e51b8152600401610e389061471e565b612be281613501565b33600090815260016020526040902054826001600160801b03161115612d855760405162461bcd60e51b81526020600482015260116024820152706e6f7420656e6f75676820746f6b656e7360781b6044820152606401610e38565b6000826001600160801b0316612d9a60035490565b612da49190614d2c565b905060006002612db360035490565b612dbd9190614d1d565b90506000612dcc600284614d1d565b90506000612dda8284614d2c565b905084811015612e1c5760405162461bcd60e51b815260206004820152600d60248201526c1c1c9a58d948191c9bdc1c1959609a1b6044820152606401610e38565b604051339082156108fc029083906000818181858888f1935050505015612e5557612e5033876001600160801b0316613654565b611b81565b60405162461bcd60e51b815260206004820152601260248201527173656e646572206e6f742070617961626c6560701b6044820152606401610e38565b612e9b816137a2565b612be233607f6135a4565b6000546001600160a01b0316331480612ed05750336000908152600f602052604090205460011615155b612eec5760405162461bcd60e51b8152600401610e389061469a565b612ef86009858561386a565b5061142c600a838361386a565b6000546001600160a01b0316331480612f2f5750336000908152600f602052604090205460011615155b612f4b5760405162461bcd60e51b8152600401610e389061469a565b6112ef600a868661386a565b6001600160a01b038316612fb95760405162461bcd60e51b8152602060048201526024808201527f45524332303a20617070726f76652066726f6d20746865207a65726f206164646044820152637265737360e01b6064820152608401610e38565b6001600160a01b03821661301a5760405162461bcd60e51b815260206004820152602260248201527f45524332303a20617070726f766520746f20746865207a65726f206164647265604482015261737360f01b6064820152608401610e38565b6001600160a01b0383811660008181526002602090815260408083209487168084529482529182902085905590518481527f8c5be1e5ebec7d5bd14f71427d1e84f3dd0314c0f7b2291e5b200ac8c7c3b925910160405180910390a3505050565b60006130878484612caf565b905060001981146130ef57818110156130e25760405162461bcd60e51b815260206004820152601d60248201527f45524332303a20696e73756666696369656e7420616c6c6f77616e63650000006044820152606401610e38565b6130ef8484848403612f57565b50505050565b6001600160a01b0383166131595760405162461bcd60e51b815260206004820152602560248201527f45524332303a207472616e736665722066726f6d20746865207a65726f206164604482015264647265737360d81b6064820152608401610e38565b6001600160a01b0382166131bb5760405162461bcd60e51b815260206004820152602360248201527f45524332303a207472616e7366657220746f20746865207a65726f206164647260448201526265737360e81b6064820152608401610e38565b6001600160a01b038316600090815260016020526040902054818110156132335760405162461bcd60e51b815260206004820152602660248201527f45524332303a207472616e7366657220616d6f756e7420657863656564732062604482015265616c616e636560d01b6064820152608401610e38565b6001600160a01b0380851660009081526001602052604080822085850390559185168152908120805484929061326a908490614a22565b92505081905550826001600160a01b0316846001600160a01b03167fddf252ad1be2c89b69c2b068fc378daa952ba7f163c4a11628f55a4df523b3ef846040516132b691815260200190565b60405180910390a36130ef565b600080546001600160a01b038381166001600160a01b0319831681178455604051919092169283917f8be0079c531659141344cd1fd0a4f28419497f9722a3daafe3b4186f6b6457e09190a35050565b6001600160a01b0382166133695760405162461bcd60e51b815260206004820152601f60248201527f45524332303a206d696e7420746f20746865207a65726f2061646472657373006044820152606401610e38565b806003600082825461337b9190614a22565b90915550506001600160a01b038216600090815260016020526040812080548392906133a8908490614a22565b90915550506040518181526001600160a01b038316906000907fddf252ad1be2c89b69c2b068fc378daa952ba7f163c4a11628f55a4df523b3ef9060200160405180910390a35050565b6001600160a01b038116600090815260146020526040812054900b6001141561345d5760405162461bcd60e51b815260206004820152601e60248201527f636f6e747269627574696f6e20616c726561647920636f6e6669726d656400006044820152606401610e38565b6012805490600061346d83614bfc565b90915550506001600160a01b038116600090815260146020526040812054900b6134dd57601380546001810182556000919091527f66de8ffda797e3de9c05e8fc57b3bf0ec28a930d40b0d285d93c06501cf6a0900180546001600160a01b0319166001600160a01b0383161790555b6001600160a01b03166000908152601460205260409020805460ff19166001179055565b6001600160a01b038116600090815260146020526040812054900b60011461356b5760405162461bcd60e51b815260206004820152601b60248201527f636f6e747269627574696f6e206e6f7420636f6e6669726d74656400000000006044820152606401610e38565b6012805490600061357b83614d43565b90915550506001600160a01b03166000908152601460205260409020805460ff19166002179055565b6001600160a01b0382166000908152600e6020526040812054900b61362757600d805460018082019092557fd7b6990105719101dabeb77144f2a3385c8033acd3af97e9423a695e81ad1eb50180546001600160a01b0319166001600160a01b0385169081179091556000908152600e60205260409020805460ff191690911790555b6001600160a01b03919091166000908152600f60205260409020805460ff191660ff909216919091179055565b6001600160a01b0382166136b45760405162461bcd60e51b815260206004820152602160248201527f45524332303a206275726e2066726f6d20746865207a65726f206164647265736044820152607360f81b6064820152608401610e38565b6001600160a01b038216600090815260016020526040902054818110156137285760405162461bcd60e51b815260206004820152602260248201527f45524332303a206275726e20616d6f756e7420657863656564732062616c616e604482015261636560f01b6064820152608401610e38565b6001600160a01b0383166000908152600160205260408120838303905560038054849290613757908490614d2c565b90915550506040518281526000906001600160a01b038516907fddf252ad1be2c89b69c2b068fc378daa952ba7f163c4a11628f55a4df523b3ef9060200160405180910390a3505050565b6000546001600160a01b031633146137fc5760405162461bcd60e51b815260206004820181905260248201527f4f776e61626c653a2063616c6c6572206973206e6f7420746865206f776e65726044820152606401610e38565b6001600160a01b0381166138615760405162461bcd60e51b815260206004820152602660248201527f4f776e61626c653a206e6577206f776e657220697320746865207a65726f206160448201526564647265737360d01b6064820152608401610e38565b612be2816132c3565b828054613876906146e3565b90600052602060002090601f01602090048101928261389857600085556138de565b82601f106138b15782800160ff198235161785556138de565b828001600101855582156138de579182015b828111156138de5782358255916020019190600101906138c3565b506138ea9291506138ee565b5090565b5b808211156138ea57600081556001016138ef565b80356001600160a01b038116811461391a57600080fd5b919050565b60006020828403121561393157600080fd5b61393a82613903565b9392505050565b60008083601f84011261395357600080fd5b5081356001600160401b0381111561396a57600080fd5b60208301915083602082850101111561398257600080fd5b9250929050565b6000806020838503121561399c57600080fd5b82356001600160401b038111156139b257600080fd5b6139be85828601613941565b90969095509350505050565b6000815180845260005b818110156139f0576020818501810151868301820152016139d4565b81811115613a02576000602083870101525b50601f01601f19169290920160200192915050565b60208152600061393a60208301846139ca565b6001600160c01b031981168114612be257600080fd5b60008060408385031215613a5357600080fd5b613a5c83613903565b91506020830135613a6c81613a2a565b809150509250929050565b60008060408385031215613a8a57600080fd5b613a9383613903565b946020939093013593505050565b6001600160401b0381168114612be257600080fd5b6001600160e81b031981168114612be257600080fd5b60008060008060008060808789031215613ae557600080fd5b86356001600160401b0380821115613afc57600080fd5b613b088a838b01613941565b90985096506020890135915080821115613b2157600080fd5b50613b2e89828a01613941565b9095509350506040870135613b4281613aa1565b91506060870135613b5281613ab6565b809150509295509295509295565b600080600060408486031215613b7557600080fd5b83356001600160401b03811115613b8b57600080fd5b613b9786828701613941565b9094509250506020840135613bab81613aa1565b809150509250925092565b600080600080600060608688031215613bce57600080fd5b85356001600160401b0380821115613be557600080fd5b613bf189838a01613941565b90975095506020880135915080821115613c0a57600080fd5b50613c1788828901613941565b9094509250506040860135613c2b81613ab6565b809150509295509295909350565b61ffff81168114612be257600080fd5b600080600080600060808688031215613c6157600080fd5b613c6a86613903565b945060208601356001600160401b03811115613c8557600080fd5b613c9188828901613941565b9095509350506040860135613ca581613c39565b91506060860135613c2b81613a2a565b60008060008060008060006080888a031215613cd057600080fd5b87356001600160401b0380821115613ce757600080fd5b613cf38b838c01613941565b909950975060208a0135915080821115613d0c57600080fd5b613d188b838c01613941565b909750955060408a0135915080821115613d3157600080fd5b50613d3e8a828b01613941565b9094509250506060880135613d5281613ab6565b8091505092959891949750929550565b600080600080600060608688031215613d7a57600080fd5b85356001600160401b0380821115613d9157600080fd5b613d9d89838a01613941565b90975095506020880135915080821115613db657600080fd5b50613dc388828901613941565b9094509250506040860135613c2b81613aa1565b600080600060608486031215613dec57600080fd5b613df584613903565b9250613e0360208501613903565b9150604084013590509250925092565b60008060008060608587031215613e2957600080fd5b84356001600160401b03811115613e3f57600080fd5b613e4b87828801613941565b9095509350506020850135613e5f81613aa1565b91506040850135613e6f81613ab6565b939692955090935050565b60008060008060408587031215613e9057600080fd5b84356001600160401b0380821115613ea757600080fd5b613eb388838901613941565b90965094506020870135915080821115613ecc57600080fd5b50613ed987828801613941565b95989497509550505050565b60008060408385031215613ef857600080fd5b613f0183613903565b915060208301356001600160401b03811115613f1c57600080fd5b830160608186031215613a6c57600080fd5b80356001600160801b038116811461391a57600080fd5b60008060008060008060008060c0898b031215613f6157600080fd5b613f6a89613903565b975060208901356001600160401b0380821115613f8657600080fd5b908a019060a0828d031215613f9a57600080fd5b90975060408a013590613fac82613c39565b90965060608a01359080821115613fc257600080fd5b613fce8c838d01613941565b909750955060808b0135915080821115613fe757600080fd5b50613ff48b828c01613941565b9094509250614007905060a08a01613f2e565b90509295985092959890939650565b6000806000806060858703121561402c57600080fd5b61403585613903565b935060208501356001600160401b0381111561405057600080fd5b61405c87828801613941565b9094509250506040850135613e6f81613a2a565b8260000b815260406020820152600082516060604084015261409560a08401826139ca565b602085015161ffff1660608501526040909401516001600160c01b031916608090930192909252509092915050565b6000806000604084860312156140d957600080fd5b6140e284613903565b925060208401356001600160401b038111156140fd57600080fd5b61410986828701613941565b9497909650939450505050565b60008083601f84011261412857600080fd5b5081356001600160401b0381111561413f57600080fd5b6020830191508360208260051b850101111561398257600080fd5b6000806000806040858703121561417057600080fd5b84356001600160401b038082111561418757600080fd5b61419388838901614116565b909650945060208701359150808211156141ac57600080fd5b50613ed987828801614116565b6000602082840312156141cb57600080fd5b813561393a81613c39565b6020808252825182820181905260009190848201906040850190845b818110156142175783516001600160a01b0316835292840192918401916001016141f2565b50909695505050505050565b60006020828403121561423557600080fd5b61393a82613f2e565b60006020828403121561425057600080fd5b813561393a81613ab6565b60008060008060008060008060a0898b03121561427757600080fd5b88356001600160401b038082111561428e57600080fd5b61429a8c838d01613941565b909a50985060208b01359150808211156142b357600080fd5b6142bf8c838d01613941565b909850965060408b01359150808211156142d857600080fd5b506142e58b828c01613941565b90955093505060608901356142f981613aa1565b9150608089013561430981613ab6565b809150509295985092959890939650565b60a08152600061432d60a08301886139ca565b828103602084015261433f81886139ca565b9050828103604084015261435381876139ca565b6001600160401b0395909516606084015250506001600160e81b0319919091166080909101529392505050565b6000806000806060858703121561439657600080fd5b61439f85613903565b935060208501356001600160401b038111156143ba57600080fd5b6143c687828801613941565b9094509250506040850135613e6f81613c39565b6000806000606084860312156143ef57600080fd5b6143f884613903565b9250602084013561440881613c39565b91506040840135613bab81613a2a565b60008060008060008060006080888a03121561443357600080fd5b87356001600160401b038082111561444a57600080fd5b6144568b838c01613941565b909950975060208a013591508082111561446f57600080fd5b61447b8b838c01613941565b909750955060408a013591508082111561449457600080fd5b506144a18a828b01613941565b9094509250506060880135613d5281613aa1565b6000806000604084860312156144ca57600080fd5b83356001600160401b038111156144e057600080fd5b6144ec86828701613941565b9094509250506020840135613bab81613ab6565b6000806040838503121561451357600080fd5b823561451e81613aa1565b91506020830135613a6c81613ab6565b60006020828403121561454057600080fd5b813561393a81613aa1565b6000806000806000806060878903121561456457600080fd5b86356001600160401b038082111561457b57600080fd5b6145878a838b01613941565b909850965060208901359150808211156145a057600080fd5b6145ac8a838b01613941565b909650945060408901359150808211156145c557600080fd5b506145d289828a01613941565b979a9699509497509295939492505050565b803560ff8116811461391a57600080fd5b6000806040838503121561460857600080fd5b61461183613903565b915061461f602084016145e4565b90509250929050565b6000806040838503121561463b57600080fd5b61464483613903565b91506020830135613a6c81613c39565b6000806040838503121561466757600080fd5b61467083613903565b915061461f60208401613903565b6000806040838503121561469157600080fd5b613a9383613f2e565b60208082526029908201527f73656e64657220686173206e6f207065726d697373696f6e20746f206564697460408201526820746869732061696d60b81b606082015260800190565b600181811c908216806146f757607f821691505b6020821081141561471857634e487b7160e01b600052602260045260246000fd5b50919050565b60208082526028908201527f73656e64657220686173206e6f207065726d697373696f6e20746f206368616e604082015267676520666c6f777360c01b606082015260800190565b6000808335601e1984360301811261477d57600080fd5b8301803591506001600160401b0382111561479757600080fd5b60200191503681900382131561398257600080fd5b634e487b7160e01b600052604160045260246000fd5b601f821115610e4d57600081815260208120601f850160051c810160208610156147e95750805b601f850160051c820191505b81811015611b81578281556001016147f5565b600019600383901b1c191660019190911b1790565b6001600160401b03831115614834576148346147ac565b6148488361484283546146e3565b836147c2565b6000601f84116001811461487657600085156148645750838201355b61486e8682614808565b84555061142c565b600083815260209020601f19861690835b828110156148a75786850135825560209485019460019092019101614887565b50868210156148c45760001960f88860031b161c19848701351681555b505060018560011b0183555050505050565b60008135610f7e81613c39565b60008135610f7e81613a2a565b6148fa8283614766565b6001600160401b03811115614911576149116147ac565b6149258161491f85546146e3565b856147c2565b6000601f82116001811461495357600083156149415750838201355b61494b8482614808565b8655506149ad565b600085815260209020601f19841690835b828110156149845786850135825560209485019460019092019101614964565b50848210156149a15760001960f88660031b161c19848701351681555b505060018360011b0185555b50505050600181016149d76149c4602085016148d6565b825461ffff191661ffff91909116178255565b610e4d6149e6604085016148e3565b825469ffffffffffffffff0000191660b09190911c69ffffffffffffffff000016178255565b634e487b7160e01b600052601160045260246000fd5b60008219821115614a3557614a35614a0c565b500190565b6000816000190483118215151615614a5457614a54614a0c565b500290565b60008135610f7e81613aa1565b60008135610f7e81613ab6565b614a7d8283614766565b6001600160401b03811115614a9457614a946147ac565b614aa28161491f85546146e3565b6000601f821160018114614ad05760008315614abe5750838201355b614ac88482614808565b865550614b2a565b600085815260209020601f19841690835b82811015614b015786850135825560209485019460019092019101614ae1565b5084821015614b1e5760001960f88660031b161c19848701351681555b505060018360011b0185555b50505050614b3b6020830183614766565b614b4981836001860161481d565b5050614b586040830183614766565b614b6681836002860161481d565b505060038101614b99614b7b60608501614a59565b825467ffffffffffffffff19166001600160401b0391909116178255565b610e4d614ba860808501614a66565b825462ffffff60401b191660a89190911c6affffff000000000000000016178255565b634e487b7160e01b600052603260045260246000fd5b600060208284031215614bf357600080fd5b61393a826145e4565b6000600019821415614c1057614c10614a0c565b5060010190565b600060208284031215614c2957600080fd5b8135801515811461393a57600080fd5b600181815b80851115614c74578160001904821115614c5a57614c5a614a0c565b80851615614c6757918102915b93841c9390800290614c3e565b509250929050565b600082614c8b57506001610f7e565b81614c9857506000610f7e565b8160018114614cae5760028114614cb857614cd4565b6001915050610f7e565b60ff841115614cc957614cc9614a0c565b50506001821b610f7e565b5060208310610133831016604e8410600b8410161715614cf7575081810a610f7e565b614d018383614c39565b8060001904821115614d1557614d15614a0c565b029392505050565b600061393a60ff841683614c7c565b600082821015614d3e57614d3e614a0c565b500390565b600081614d5257614d52614a0c565b50600019019056fea264697066735822122065071140c6be19886c91b57b6a86fe42455a6054e809b760b1edfbf6b61a4fb464736f6c63430008090033616e20656666696369656e7420736f63696f65636f6e6f6d69632073797374656d",
  "linkReferences": {},
  "deployedLinkReferences": {}
}